:020000040800F2
:10000000E0080020450100080D1B000855130008FA
:10001000B1140008C50C0008713100080000000090
:100020000000000000000000000000002522000881
:10003000650D000800000000B71E0008ED24000850
:100040005F0100085F0100085F0100085F01000810
:100050005F0100085F0100085F0100085F01000800
:100060005F0100085F0100085F0100085F010008F0
:100070005F0100085F0100085F0100085F010008E0
:100080005F0100085F0100085F0100085F010008D0
:100090005F0100085F0100085F0100085F010008C0
:1000A0005F0100085F0100085F0100085F010008B0
:1000B0002D2600085F010008812600085F01000866
:1000C0005F0100085F0100085F0100085F01000890
:1000D0005F010008B12C0008152D0008952D0008BF
:1000E000910D00085F0100085F0100085F01000832
:1000F0005F0100085F0100085F0100085F01000860
:100100005F0100085F0100085F0100085F0100084F
:100110005F0100085F0100085F0100085F0100083F
:100120005F0100085F0100085F0100085F0100082F
:10013000DFF80CD000F0CCFB00480047513C000831
:10014000E00800200648804706480047FEE7FEE733
:10015000FEE7FEE7FEE7FEE7FEE7FEE7FEE7FEE777
:10016000F1240008310100082DE9FE4F804681EAA4
:100170000300C00F0C46009021F0004123F0004521
:10018000B8EB0200A94105D24046214690461C46E4
:100190000B46024623F00040104347D0270DC7F31B
:1001A0000A00C3F30A510290401A019040286BDA0A
:1001B000C3F3130040F4801B0098924620B1002343
:1001C000D2EB030A63EB0B0B01985946C0F14002D6
:1001D000504600F052FA06460D4650465946019ADE
:1001E00000F06AFA10EB08006141002487EA11521E
:1001F00084EAE7731A4340D0009A62B3019A012A55
:100200004FEA075215DC001B61EB02014FF0004280
:1002100002EA0752CDE90042001C41F58011324646
:100220002B4600F0EFFA03B0BDE8F08F40462146C0
:10023000F9E7001B61EB0201001C41F58013001877
:100240005B412018A2F5001747EB030140EAD57087
:10025000B6196D4111E06D084FEA360645EAC075E2
:100260004FEA0752001B61EB0201001C41F58011AF
:1002700049084FEA30000019514132462B4603B07D
:10028000BDE8F04F00F0AFBA009801224000002313
:10029000D0EB020263EBE073009821464FEAE07472
:1002A000B8EB000061EB0401E9E783F000435BE792
:1002B00081F0004158E72DE9FE4F81EA030404F084
:1002C000004421F0004100944FF0000B23F0004364
:1002D00050EA01045ED052EA03045BD0C3F30A542F
:1002E000C1F30A552C44A4F2F3340194A0FB025448
:1002F000C1F3130141F48011C3F3130343F48013DA
:1003000001FB024400FB034E840A970A44EA81542D
:1003100047EA8357A4FB076802958D0A05FB07850A
:100320004FEA932C04FB0C542705029D4FEA065814
:1003300047EA1637B5EB08056EEB070C870E920EF1
:1003400047EA811742EA8312A7FB0201B6EB0B01D1
:1003500064EB00042B0D43EA0C335E1844EB1C5095
:10036000DA465146E7FB0201C5F313044FEA0B33AB
:1003700043EA14534FEA0432019C43EA0603A4F112
:100380000C040294009CCDE900B400F03BFA03B0E9
:10039000BDE8F08F00200146F9E72DE9F04D81EA34
:1003A000030404F0004B21F0004514464FF0000A0E
:1003B00023F0004150EA050220D054EA01021DD08A
:1003C000C5F30A570246C5F31303C1F31300C1F383
:1003D0000A5640F4801543F48013A7EB0608101B5F
:1003E000D64608F2FD3873EB050002D308F1010888
:1003F00001E092185B41B8F1000F03DA00200146DA
:10040000BDE8F08D00204FF48011064684460EE0D2
:10041000171B73EB050705D3121B63EB050306439C
:100420004CEA010C49084FEA300092185B4150EA4F
:100430000107EDD152EA030012D082EA040083EAF8
:100440000501084305D0101BAB4106D20122002351
:1004500006E000224FF0004302E06FF0010253106B
:100460001AEB06004CEB085110EB0A0041EB0B01B4
:10047000BDE8F04D00F0B7B996230022114600F018
:1004800084B90EB5C10F80EAE0700844CA070021A4
:1004900040F233438DE80E000A460B4600F0B2F9F5
:1004A00003B000BD0EB540F2334102910021CDE909
:1004B00000110A460B4600F0A5F903B000BD70B567
:1004C000C1F30A5201F000450024C1F3130140F2C8
:1004D000FF3341F480119A4201DA002070BD40F2EE
:1004E00033439A42A2F2334203DC524200F0D4F882
:1004F00000E090402C43F1D0404270BDC1F30A525D
:1005000010B5C1F3130140F2FF3341F480119A4258
:1005100001DA002010BD40F233439A42A2F2334286
:1005200003DC524200F0B8F810BD904010BD00F05E
:10053000004230F000400AD0C10D01F56071C0F3F7
:10054000160042EA0151C2084007114370470020DB
:100550000146704730B5041E71F1000404DB4FF012
:100560000044404264EB0101141E73F1000405DBFA
:100570001C464FF00043524263EB04038B4208BF1A
:10058000824230BD30B5041E71F1000404DB4FF02F
:100590000044404264EB0101141E73F1000405DBCA
:1005A0001C464FF00043524263EB0403994208BFDC
:1005B000904230BD01F0004330B421F0004150EAD8
:1005C000010206D00A0DA2F56072C1F31301002AE0
:1005D00002DC30BC00207047440F44EAC104C10073
:1005E000E01830BC00EBC25000F0C6B830B50B4686
:1005F000014600202022012409E021FA02F59D4253
:1006000005D303FA02F5491B04FA02F52844151E26
:10061000A2F10102F1DC30BD2DE9F05F05460020BA
:1006200092469B4688460646814640241BE0284663
:1006300041464746224600F02FF853465A46C01A14
:10064000914110D311461846224600F016F82D1A93
:1006500067EB01084F4622460120002100F00DF80B
:1006600017EB00094E41201EA4F10104DFDC4846CF
:1006700031462A464346BDE8F09F202A04DB203A53
:1006800000FA02F1002070479140C2F1200320FAE5
:1006900003F3194390407047202A04DB203A21FAE3
:1006A00002F00021704721FA02F3D040C2F120028B
:1006B0009140084319467047202A06DBCB17203AA1
:1006C00041FA02F043EAE07306E041FA02F3D04057
:1006D000C2F1200291400843194670470FB400232D
:1006E00000B589B00CA900910B996FF00042CB6066
:1006F0001E4B06931E4B07930423CDE901321D4A7E
:10070000089202466B46002000F07AF909B05DF8C5
:1007100014FB70B586B006464FF0FF300091CDE96E
:100720000101002015460C4604903246694604A893
:10073000FFF7D4FF03460498211825B108B10A46F3
:1007400000E022462A6000280DD0002B02DD009830
:10075000884208D0081B0094CDE90104324669465E
:1007600004A8FFF7BBFF06B070BD0000390C0008FD
:10077000570C0008F50800080029A8BF7047401C66
:10078000490008BF20F00100704710B4B0FA80FCA7
:1007900000FA0CF050EA010404BF10BC704749B1E4
:1007A000CCF1200421FA04F411FA0CF118BF012154
:1007B00021430843A3EB0C01CB1D4FEA00614FEA34
:1007C000102042BF002010BC704700EBC350104403
:1007D0000029A4BF10BC7047401C490008BF20F08E
:1007E000010010BC704710B5141E73F1000408DA44
:1007F000401C41F1000192185B411A4301D120F0E5
:10080000010010BD2DE9F04D92469B4611B1B1FAA1
:1008100081F202E0B0FA80F220329046FFF72DFF1D
:1008200004460F4640EA0A0041EA0B0153465A4685
:10083000084313D0114653EA010019D0C8F1400211
:100840005046FFF729FF05460E4650465946424698
:10085000FFF713FF084305D0012004E02046394686
:10086000BDE8F08D0020054346EAE0762C4337438F
:100870000A986305E40AA0EB08000022FD0A44EA96
:1008800047540A3002D500200146E9E70105101956
:100890006941DDE9084500196941BDE8F04DA2E76D
:1008A000C1F30A52C1F3130140F2FF3341F4801146
:1008B0009A4202DA00200146704740F233439A42DE
:1008C000A2F2334202DC5242FFF7E6BEFFF7D5BE8A
:1008D000064C074D06E0E06840F0010394E807008D
:1008E00098471034AC42F6D3FFF726FC10560008A8
:1008F00030560008C0B24FF4F05100F0BDB900000E
:100900002DE9FF4F087881B09946FF2805D0491C92
:100910002D2804D00024002308E000230BE001244C
:10092000F9E703EB830300EB4303491C0878FF2836
:10093000F7D104B15B4200200090147801462D2CC1
:1009400001D02B2C04D1521C2D2C12D00024009449
:1009500000251678FF2E0ED00A24A0FB04C801FB48
:100960000481002700FB0711521C16EB0C006941A3
:10097000EFE70124EBE7994450EA01020ED000248E
:10098000AA4D2646DFF8A88200F08AF982468B46F7
:10099000B9F1000009DAC9F100071BE00198002154
:1009A000C0E9001105B0BDE8F08F074612E0F80776
:1009B00007D022462B4630464146FFF77CFC0646D0
:1009C000884622462B4610461946FFF774FC04461B
:1009D0000D467F10002FEAD1B9F1000F3246434691
:1009E0005046594602DAFFF7D8FC01E0FFF763FCF6
:1009F000009A0AB181F00041019AC2E90001D1E7F1
:100A00002DE9FF4F1F468DB0D7E901464FF0FF3863
:100A10002E2045464FF000090B90B9696D1C0E98C9
:100A20008847396A824688470028F6D1BAF1FF3FE5
:100A30000AD024F4D064002E11DDBAF12B0F08D0B7
:100A4000BAF12D0F0BD102E0404611B0ABE744F4F0
:100A50008064B9696D1C0E9888478246761E694687
:100A6000600501D52D2000E02B208DF8000001F15C
:100A7000010B0DF1200809E0B9696D1C0E9888473B
:100A800082460F9844F40074761E0560002E02DD45
:100A9000BAF1300FF0D00B998A453ED144F0800472
:100AA00006E00F99681CA9F1010944F4007408607C
:100AB000B9696D1C761E0E98884782463028F0D0A2
:100AC0002BE00B998A4505D1200603D444F080041D
:100AD000761E18E0504602F0B9FC08B30DF1130180
:100AE000761E44F400748B4508D2AAF130000BF84E
:100AF000010B200607D5A9F1010003E0200602D46E
:100B000009F101008146A00502D50F99681C086013
:100B1000B9696D1C0E9888478246002ED1DC53E0DF
:100B2000002E51DDBAF1650F02D0BAF1450F4BD15D
:100B3000A00549D5B9696D1C24F44074761E0E9841
:100B400088478246002E0CDD2B2804D0BAF12D0FE9
:100B500007D144F48074B9696D1C0E9888478246A9
:100B6000761EE00501D52D2100E02B2108F8011BA0
:100B7000CDF82C8021E00DF12901761E44F400749B
:100B800088450CD2AAF1300010F0FF0088F8000070
:100B900002D10B99884509D908F1010806E0E00562
:100BA00001D5244801E042F20F708146B9696D1CFD
:100BB0000E98884782460F980560002E04DD504647
:100BC00002F044FC0028D6D1F9690E988847FF202E
:100BD0008BF8000088F800000020069007904B4634
:100BE0006A4608A906A8FFF78BFEA00502D46FF09D
:100BF00001002AE714F0240F0AD0E00714D1DDE940
:100C000006123868031D3B600068C0E900120BE063
:100C1000DDE90601FFF7CEFC0146E00704D13868A4
:100C2000021D3A600068016028460EE7000024407B
:100C30000000F03FF1D8FFFF426842B1016811F8AF
:100C4000013B23B1521EC0E9001218467047012132
:100C5000C160881E704742685AB1C368016843B9D1
:100C600083688B4205D0491E521CC0E90012002047
:100C700070474FF0FF3070477F2801D9002208E00D
:100C8000064A02EB5002C007127800D1120902F0A6
:100C90000F0201209040084070470000D055000826
:100CA0000EB540F2334202920022CDE900221346F3
:100CB000FFF7A8FD03B000BD01200149087070478F
:100CC0006500002000BFFEE72DE9FC5F8346584623
:100CD000FFF72DFC1A4A1B4BCDE90001FFF7EBFA99
:100CE00006460F4618490888FFF7DCFB8046324667
:100CF0003B46FFF739FA0446FFF700FC1FFA80FA7B
:100D00005046FFF7CFFB04464FF055320F4BFFF72D
:100D100039FC02D240F2F76A0AE05046FFF7C2FB04
:100D200004460B4A0B4BFFF715FC01D240F25C4A1C
:100D3000514605483C3801F03DFEBDE8FC9F0000EF
:100D40008EE3388EE33826403C04004055DD9B405E
:100D5000ABAAAAAAAA729140012001490870704763
:100D600064000020704710B503460C46184600F09A
:100D7000C2F9A04201DA002010BD188820449988E9
:100D800090FBF1F201FB120018800120F4E7000053
:100D900010B54FF4004000F04FF8A8B14FF40041F7
:100DA0000A4800F09BF958B9102009490870002141
:100DB000084801F009FD00214FF0804001F004FDDA
:100DC0004FF4004000F032F810BD00000010014068
:100DD00070000020000800400EB50121084601F017
:100DE000CBF800F0B9FA0F21022000F083F84FF49D
:100DF0000040019000208DF808000C208DF80900BB
:100E000001208DF80A0001A800F02AF828208DF8AA
:100E1000000003208DF8010002208DF8020001205F
:100E20008DF80300684600F073FE0EBD01490860AE
:100E30007047000014040140014600200022074BC7
:100E40001B6803EA0102054B14331B680B4013B106
:100E50000AB1012000E000207047000000040140BA
:100E6000002123498279002A3AD00A461268036891
:100E70009A430B461A600A1D126803689A430B1DB9
:100E80001A60027911440A6803681A430A60184A12
:100E90000832126803689A43154B08331A601A1D0A
:100EA000126803689A43124B0C331A604279102A75
:100EB0000ED11A1F126803681A430D4B08331A60CB
:100EC0001A1D126803681A43094B0C331A600DE0AF
:100ED0000749427911440A6803681A430A6005E029
:100EE000027911440A6803689A430A607047000057
:100EF0000004014030B500228B071C0F0F2303FABA
:100F000004F20B4B8C1053F824309343084C8D1093
:100F100044F8253023468C1053F824308C07240FD6
:100F200000FA04F42343024C8D1044F8253030BD00
:100F3000080001402DE9F04102460025002600206E
:100F400000230024002791F803C00CF00F0591F84E
:100F500003C00CF0100CBCF1000F03D091F802C0DC
:100F60004CEA050591F800C0BCF1000F31D01468BF
:100F700000202BE04FF0010C0CFA00F3B1F800C098
:100F80000CEA03069E4220D183004FF00F0C0CFAAE
:100F900003F7BC4305FA03FC4CEA040491F803C0D0
:100FA000BCF1280F06D14FF0010C0CFA00FCC2F87E
:100FB00014C00AE091F803C0BCF1480F05D14FF00E
:100FC000010C0CFA00FCC2F810C0401C0828D1D358
:100FD0001460B1F800C0BCF1FF0F34DD546800208C
:100FE0002EE000F1080C4FF0010808FA0CF3B1F8FC
:100FF00000C00CEA03069E4221D183004FF00F0C83
:101000000CFA03F7BC4305FA03FC4CEA040491F81C
:1010100003C0BCF1280F05D100F1080C08FA0CF848
:10102000C2F8148091F803C0BCF1480F07D100F159
:10103000080C4FF0010808FA0CF8C2F81080401CA8
:101040000828CED35460BDE8F0810000F0B50A4610
:10105000002300240021002500F00046B6F1004FD7
:1010600002D11D4EF16901E01B4E7168C0F30345CA
:1010700083B200F44016B6F5401F08D121F070612C
:10108000154E766826F07066134F7E6012E000F40D
:101090008016B6F5801F06D1032606FA05F4A14393
:1010A00041F0706106E0460D360103FA06F6B143E1
:1010B00041F0706122B1460D360103FA06F6314364
:1010C00000F00046B6F1004F02D1034EF16101E09D
:1010D000014E7160F0BD000000000140024600209A
:1010E00093680B400BB1012000E000207047416184
:1010F000704701617047014608884A88904204DCC5
:1011000048880A88801A80B2704788884A881044C4
:101110000A88801A80B2F7E710B500244FF4805196
:101120001048FFF7DBFF10B144F0010401E024F0A8
:1011300001044FF400510B48FFF7D0FF10B144F009
:10114000020401E024F002044FF480410548FFF757
:10115000C5FF10B144F0040401E024F0040420466B
:1011600010BD0000000C01400148006870470000FD
:10117000480000202DE9F84380460026002700257E
:1011800000BF01232A466946454800F06FFF10B1B1
:10119000681C85B202E00020BDE8F8839DF80000DD
:1011A0005828EED11AE001232A4669463C4800F04F
:1011B0005DFF88B19DF8000030280ADB9DF8000033
:1011C000392806DC9DF800000A2101FB0600A0F189
:1011D0003006681C85B201E00020DDE79DF80000C4
:1011E0005328E0D11AE001232A4669462C4800F032
:1011F0003DFF88B19DF8000030280ADB9DF8000013
:10120000392806DC9DF800000A2101FB0700A0F147
:101210003007681C85B201E00020BDE79DF80000A2
:101220000A28E0D1681E81B21D48FFF79CFD1D48C9
:101230000068341A322C02DC14F1320F0ADA1A4830
:101240000078012806DA18480078401C1649087012
:101250000020A1E7002014490870144800683C1AD7
:1012600041F28830844202DC404284420ADA10486B
:101270000078012806DA0E480078401C0C490870F6
:10128000002089E700200A490870064806600748E0
:101290000760C8F80060C8F8087001207CE700000B
:1012A0003000002058000020600000205C0000207A
:1012B0006100002025490978182924D010DC0C2968
:1012C0001FD006DC07293AD0082920D009293AD1B5
:1012D00031E00D2929D0152929D0162933D122E052
:1012E0004A291ED006DC192923D01C2911D04229F5
:1012F00029D112E0522912D05A290CD05E2922D1CC
:1013000003E0312020E032201EE033201CE03420B6
:101310001AE0352018E0362016E0372014E0382097
:1013200012E0392010E030200EE02E200CE00020EA
:101330000AE02D2008E07921054A117004E07821A7
:10134000034A117000E000BF00BF70476B0000202F
:101350008000002000BFFEE708B50121182000F042
:101360000BFE01210C48FFF771FE4FF4E040ADF891
:10137000000048208DF8030069460848FFF7DAFDB1
:101380004FF40040ADF8000048208DF80300694696
:101390000348FFF7CFFD08BD00023000000C0140FC
:1013A0000010014010B5044614B101203049087006
:1013B0002F48007800283DD04FF480512D48FFF78A
:1013C0008DFE88B14FF400512A48FFF787FE58B1CF
:1013D0004FF480412748FFF781FE28B14FF40041C8
:1013E0002548FFF77BFE28BB0A2002F00BFC0020FB
:1013F0001F4908704FF480511E48FFF76FFE08B96F
:10140000012010BD4FF400511A48FFF767FE08B9DC
:101410000220F6E74FF480411648FFF75FFE08B957
:101420000320EEE74FF400411348FFF757FEE0B901
:101430000420E6E74FF480510E48FFF74FFE0128E5
:1014400013D141030B48FFF749FE01280DD1810359
:101450000848FFF743FE012807D1C1030648FFF7FC
:101460003DFE012801D1024908700020C9E70000B3
:101470006D000020000C01400010014008B5012162
:10148000102000F079FD10208DF8030001208DF868
:1014900002004003ADF8000069460448FFF74AFD2A
:1014A0004FF400510148FFF724FE08BD0010014031
:1014B00000BFFEE710B500F0F9FC02F0F1FB00F010
:1014C000EFFF00F0C7FF00F0D3FF00F0DDFF00F0FA
:1014D00003FC10BD03480449086004484860044800
:1014E0008860704751250008D00000208925000839
:1014F000C12500082DE9F04F95B00024002000F030
:10150000D5FE002000F090FE41F2883001F09CF8FA
:1015100000F082FFFFF7B2FF0C235DA20021084616
:1015200000F0A0FC0C235EA21821002000F09AFC21
:101530000C235EA22421002000F094FC00F0CCFBE0
:101540009EE05C480078002828D0002059490870A7
:10155000FFF7B0FE054615B314B9002012901390A2
:101560000C2355A21821302000F07CFC00F0B4FBC5
:1015700012A80555601CC4B20C2312AA18213020F1
:1015800000F070FC04EB440149003031C8B20C2378
:1015900045A2182100F066FC00F09EFB65E00020EB
:1015A00012A90855002412A802F0F4FA0746FFF722
:1015B00001F881460C234A461821302000F036FC01
:1015C00000F08AFB4846FEF7B2FF07463C4A3D4B17
:1015D000FEF771FECDE90C014846FEF7A8FF07466D
:1015E00088464846FEF7A3FF8246374A374BFEF748
:1015F00062FE3A464346CDE90401FEF75CFECDE9C2
:1016000008014846FEF793FFCDE904014846FEF77E
:101610008EFFCDE900014846FEF789FF07462C4AB8
:101620002C4BFEF748FE8246DDE90023FEF743FE21
:10163000CDE90201DDE90423FEF73DFECDE9060117
:10164000DDE90823FEF731FECDE90A01DDE90C23CF
:10165000FEF78AFD204A214BCDE90E01FEF725FE5B
:10166000CDE91001FEF7A6FF0646304601F0FAF973
:101670000C2332462421084600F0D8FB00F02CFB56
:101680001748007810287FF45CAF15B0BDE8F08FE4
:10169000656E7465722064697374616E0000000089
:1016A00064207661756C653A5F0000007069746350
:1016B000683A00006C0000205F20202020200000FD
:1016C0003D0AD7A3705D5F4062105839B478454039
:1016D000DE9387855A131640B81E85EB51085C408F
:1016E000700000202DE9F04F97B00024A3460020A1
:1016F0008849087000F0DAFD002000F095FD00F048
:101700008BFEFFF7BBFE41F2883000F09DFF0C23FB
:1017100081A20021084600F0A5FB0C2383A218211A
:10172000002000F09FFB0C2382A22421002000F067
:1017300099FB0C2382A23021002000F093FB00F0E3
:10174000CBFADFE080480078002839D000207E49BD
:101750000870FFF7AFFD05466E480078792802D182
:101760004FF0010B05E06B480078782801D14FF06D
:10177000000B002D40D014B900201490159014A82F
:101780000555601CC4B2BBF1000F1AD10C236FA227
:101790001821084600F066FB00F09EFA0C2314AAFC
:1017A0001821084600F05EFB04EB440149001831A3
:1017B000C8B20C235EA2182100F054FB00F08CFA92
:1017C00094E00C2361A22421302000F04BFB00F0B8
:1017D00083FA0C2314AA2421302000F043FB04EBED
:1017E000440149003031C8B20C2351A2242100F039
:1017F00039FB00F071FA79E0002014A908550024A3
:10180000BBF1000F63D014A802F0C4F90746FEF73D
:10181000D1FE81464846FEF78AFE07464D4A4E4BAA
:10182000FEF749FDCDE90E014846FEF780FECDE901
:1018300006014846FEF77BFE0746484A484BFEF73E
:101840003AFDCDE90401DDE90623FEF734FDCDE9DB
:101850000A014846FEF76BFECDE906014846FEF751
:1018600066FECDE902014846FEF761FE07463D4AA5
:101870003D4BFEF720FDCDE90001DDE90223FEF737
:101880001AFDCDE90401DDE90623FEF714FDCDE9DB
:101890000801DDE90A23FEF708FDCDE90C01DDE9C9
:1018A0000E23FEF761FC314A314BCDE91001FEF702
:1018B000FCFCCDE91201FEF77DFE06460C234A46EC
:1018C0002421302000F0B2FA00F006FA0EE014A84D
:1018D00002F060F90746FEF76DFE82460C23524681
:1018E0001821084600F0A2FA00F0F6F931465046F9
:1018F00001F0DEF80C2332463021242000F096FA65
:1019000000F0EAF91B48007810287FF41BAF17B0ED
:10191000BDE8F08F80000020656E746572207477DA
:101920006F2076616C756573000000007961773A0D
:101930005F00000064207661756C653A000000006D
:1019400070697463683A00006C0000205F202020FA
:10195000202000003D0AD7A3705D5F406210583917
:10196000B4784540DE9387855A131640B81E85EB40
:1019700051085C40700000202DE9F04790B0002035
:1019800000F094FC002000F04FFC4CF2503000F0CE
:1019900033FE41F2883000F057FE00F03DFDFFF7C6
:1019A0006DFD0C2347A20021184600F05BFA0C23C2
:1019B00048A21821002000F055FA00F08DF97AE0D5
:1019C00046480078002872D04548006850280DDC51
:1019D00043480068142809DB4248007830B9FFF713
:1019E0006BF940480078401C3E49087000203B4994
:1019F00008705846FEF79BFD04463B4A3B4BFEF7FA
:101A00005AFCCDE90A015846FEF791FD04460D4601
:101A10005846FEF78CFD8046354A364BFEF74BFCA8
:101A2000064622462B46FEF746FCCDE906015846FF
:101A3000FEF77DFD04460D465846FEF778FD8046CC
:101A400089465846FEF773FD2B4A2C4BCDE9000121
:101A5000FEF731FC42464B46CDE90201FEF72BFC76
:101A6000064622462B46FEF726FCCDE90401DDE9B9
:101A70000623FEF71AFCCDE90801DDE90A23FEF78B
:101A800073FB1F4A1F4BCDE90C01FEF70EFCCDE99D
:101A90000E01FEF78FFD8246504600F007FC0C2336
:101AA0005A461821242000F0C1F900F015F901F080
:101AB0007FFA01F029F814480078102880D110B07E
:101AC000BDE8F087486F6D696E6720746172676565
:101AD0007400000054617267653A000054000020F1
:101AE00048000020810000203D0AD7A3705D5F40C0
:101AF00062105839B4784540DE9387855A131640F2
:101B0000B81E85EB51085C40700000207047000053
:101B100070B5002100230F22C47804B3154C24684B
:101B200004F4E064C4F5E064210AC1F10403CA408E
:101B3000447804FA03F184781440214309010E4CDF
:101B40000678A155047804F01F050124AC400578FF
:101B50006D11AD0005F1E025C5F8004109E00478FC
:101B600004F01F050124AC40044D0678761145F8B9
:101B7000264070BD0CED00E000E400E080E100E0F4
:101B800002490143024A1160704700000000FA0553
:101B90000CED00E070B500240CE0002506E000200C
:101BA000074901EBC5010855681CC5B2802DF6DB5D
:101BB000601CC4B2082CF0DB00F08EF870BD000091
:101BC000DC000020F0B5034616467F2B01DC3F29E0
:101BD00000DDF0BD0D46CF1701EB5777FF10C7F1C1
:101BE0000707F8B21A46CF1701EB5777FF10A1EBA2
:101BF000C707C7F1070C012707FA0CF7FCB24EB173
:101C00000A4D05EBC2052D5C2543084F07EBC207C3
:101C10003D5408E0054D05EBC2052D5CA543034F7F
:101C200007EBC2073D5400BFD3E70000DC000020F3
:101C300010B500F0D9FA642001F0E4FFAE2001F005
:101C4000DFFAD52001F0DCFA802001F0D9FAA820D3
:101C500001F0D6FA3F2001F0D3FAD32001F0D0FAF8
:101C6000002001F0CDFA402001F0CAFA8D2001F0E9
:101C7000C7FA142001F0C4FA202001F0C1FA0220B2
:101C800001F0BEFAA12001F0BBFAC02001F0B8FAC1
:101C9000DA2001F0B5FA122001F0B2FA812001F049
:101CA000AFFA7F2001F0ACFAD92001F0A9FAF120B7
:101CB00001F0A6FADB2001F0A3FA302001F0A0FA2F
:101CC000A42001F09DFAA62001F09AFAAF2001F0BD
:101CD00097FAFFF75FFF10BD70B5002418E004F11C
:101CE000B001C8B201F08CFA002001F089FA10208E
:101CF00001F086FA002507E0074901EBC501085D00
:101D000001F08EFA681CC5B2802DF5DB601CC4B2F0
:101D1000082CE4DB70BD0000DC0000202DE9FE4F44
:101D200080460E4691461C46B246A9F12000C7B235
:101D30002046E31704EB5373DB1021464FEAE47CA3
:101D400004EB5C7C4FEAEC0CA4EBCC0CBCF1000F78
:101D500002D04FF0010C01E04FF0000C634422462A
:101D600004EBD27C4FEA6C0C03FB0CF303F0FF0B8B
:101D7000002550E00C2C07D107EB4700284901EB68
:101D80008000405D029013E0102C05D1254800EB47
:101D90000710405D02900BE0182C07D107EBC7003D
:101DA000214901EB8000405D029001E0BDE8FE8F1B
:101DB0000020009029E0029800F080000190029835
:101DC0004006000E0290019828B1314640460C9A18
:101DD000FFF7F8FE09E00C9808B9012000E00020A8
:101DE000024631464046FFF7EDFE701CC6B2A6EB38
:101DF0000A00A04205D1564608F1010000F0FF0894
:101E000006E00098401CC0B2009000980828D2DB81
:101E100000BF681CC5B25D45ACDB00BFC6E7000073
:101E2000103E000884420008744800082DE9FC4771
:101E300005460E46144699462046FEF778FB0746AF
:101E40003A460B4605A1684601F01EFA4B466A4623
:101E50003146284600F006F8BDE8FC8725352E32CD
:101E600066000000F8B506460F4614461D4616E00B
:101E700005EBD5714910C1F18001B14200DA0026AD
:101E80000120009022782B4639463046FFF746FF66
:101E9000284605EBD07106EB6101CEB2641C2078B8
:101EA0007E2802DC20782028E2DAF8BD10B52E204A
:101EB00001F0A6F910BD704710B5FFF72DF90446E3
:101EC000072C1ED021480088401C2049088020484B
:101ED000047008460088B0F57A7F35DB0846008834
:101EE000B0F57A7F08D11A480078FE2803D1112076
:101EF0001849087000BF00BF40F2E930134908805C
:101F000022E01248008800281BDD0120114948709A
:101F10000E480088B0F57A7F13DA0D480078032860
:101F20000AD0052804D006280AD10120087007E04D
:101F300002200849087003E003200649087000BF2A
:101F400000BF00200149088010BD0000680000208B
:101F50006A0000206600002029B1064AD2690243C7
:101F6000044BDA6104E0034AD2698243014BDA612F
:101F7000704700000010024029B1064A92690243EE
:101F8000044B9A6104E0034A92698243014B9A61CF
:101F9000704700000010024030B5002100220024EC
:101FA00000232D4D6D6805F00C0121B1042905D0E9
:101FB000082923D105E0294D056022E0274D056061
:101FC0001FE0254D6D6805F47012234D6D6805F412
:101FD0008034022505EB92421CB9214D5543056022
:101FE0000BE01D4D6D6805F400351DB11C4D5543CA
:101FF000056002E0194D5543056002E0174D05608C
:1020000000BF00BF144D6D6805F0F0010909154DC2
:102010006B5C0568DD4045600F4D6D6805F4E0615F
:10202000090A104D6B5C4568DD4085600A4D6D689E
:1020300005F46051C90A0B4D6B5C4568DD40C56015
:10204000054D6D6805F44041890B074D6B5CC56813
:10205000B5FBF3F5056130BD0010024000127A00B7
:1020600000093D0014000020240000202DE9F0416B
:1020700004460D4616461F462046FFF73CF8F11968
:10208000884202DA0020BDE8F081002310E02088B9
:1020900030441844A18890FBF1F201FB12001FFAB2
:1020A00080F8A06810F8080028706D1C581C83B2D6
:1020B000BB42ECDB0120E6E700B52848806940F030
:1020C0000400264988610846806940F48050886190
:1020D00023480068C0F313002149086008460068DF
:1020E000204908431E4908601D480C30006840F034
:1020F000E0001B490C3108601B4800881A49088021
:102100000846008840F4007008800846008840F4C3
:10211000807008800846008840F004000880084667
:10212000008808800846008840F0020008800846C1
:10213000008840F0010008800846008840F0380020
:1021400008800846008808800846008840F0400063
:102150000880FF2000F00AF800BD000000100240D7
:10216000000801400000B0BB00300140024607E01B
:10217000481C81B24FF6FE70814201DD002070479D
:102180000D48008900F002000028F1D000210A4823
:10219000828107E0481C81B24FF6FE70814201DD6A
:1021A0000020ECE70448008900F001000028F1D08D
:1021B00001488089C0B2E2E70030014000F007002A
:1021C000084909884FF6C7721140064A1180114626
:1021D000098841EAC00111801146098841F0400197
:1021E000118070470030014008B501210820FFF739
:1021F000C3FEE020ADF8000010208DF8030003209E
:102200008DF8020069460648FEF794FEE021044876
:10221000FEF76FFFFFF750FF0120FFF7CFFF08BD6C
:10222000000C0140704700002DE9F05F83465846DE
:10223000FEF77DF98046164A164BFEF73CF8064637
:102240000022154BFDF790FF0446FEF757F91FFAE1
:1022500080FA5046FEF726F904464FF055320F4BF0
:10226000FEF790F902D240F2F76A0AE05046FEF714
:1022700019F904460A4A0B4BFEF76CF901D240F2F9
:102280005C4A5146084800F095FBBDE8F09F00000D
:102290008EE3388EE338264000A8964055DD9B40FB
:1022A000ABAAAAAAAA729140000400402DE9F05FEF
:1022B00083465846FEF73BF980464FF05532154BA2
:1022C000FDF7F9FF06460022134BFDF7F1FF044628
:1022D000FEF714F91FFA80FA5046FEF7E3F80446B9
:1022E00000220E4BFEF736F902D240F2CA3A0AE05B
:1022F0005046FEF7D7F804460022074BFEF742F996
:1023000001D240F2AA5A5146054800F055FBBDE8FB
:10231000F09F00005555254000A8964000508E4083
:102320000004004010B500F001F810BD0CB500200D
:10233000019000903348006840F4803031490860D3
:1023400000BF3048006800F4003000900198401C45
:102350000190009818B90198B0F5A06FF1D1294803
:10236000006800F4003010B10120009001E000206E
:1023700000900098012843D12348006840F01000E5
:10238000214908600846006820F0030008600846FC
:10239000006840F0020008601A4840681949486027
:1023A0000846406848600846406840F480604860DD
:1023B0000846406820F47C1048600846406840F4B5
:1023C000E81048600846006840F08070086000BF70
:1023D0000C48006800F000700028F9D009484068F7
:1023E00020F00300074948600846406840F00200BA
:1023F000486000BF0348406800F00C000828F9D18D
:102400000CBD0000001002400020024001200149E4
:10241000087070476300002008B501210420FFF711
:10242000ABFD10208DF8030001208DF80200032081
:10243000ADF8000069460648FEF77CFD012104481E
:10244000FEF757FE02210248FEF751FE08BD0000CC
:102450000008014010B50C2302A21C212820FFF720
:1024600001FD10BD20205374617274310000000022
:1024700010B50C2302A228210846FFF7F3FC10BD7B
:10248000202053746172320010B50C2302A2342153
:102490002820FFF7E7FC10BD202053746172330041
:1024A00010B50C2302A210210020FFF7DBFC10BDA9
:1024B000656C656374726F6D61676E6574696320C6
:1024C00067756E00042808D14FF0E021096941F0DA
:1024D00004014FF0E022116107E04FF0E0210969AB
:1024E00021F004014FF0E0221161704770470000B5
:1024F00010B51348006840F0010011490860084613
:102500004068104908400E494860084600680E4976
:1025100008400B4908600846006820F480200860E5
:102520000846406820F4FE0048604FF41F008860B1
:10253000FFF7F8FE4FF000600449086010BD00008E
:10254000001002400000FFF8FFFFF6FE08ED00E07B
:1025500010B5FFF71FFB0C2307A220211846FFF739
:1025600081FCFFF7B9FBC82001F04CFBFFF712FB21
:10257000FEF7C0FF10BD000073797374656D2072A3
:10258000656164792100000010B5FFF703FB0C239F
:1025900007A220211846FFF765FCFFF79DFBC82026
:1025A00001F030FBFFF7F6FAFFF79CF810BD0000D2
:1025B00073797374656D2072656164792100000020
:1025C00010B5FFF7E7FA0C2307A220211846FFF702
:1025D00049FCFFF781FBC82001F014FBFFF7DAFA92
:1025E000FFF7CAF910BD000073797374656D20722E
:1025F000656164792100000010B504460121084698
:10260000FFF7AAFC21464FF0804000F093FA012228
:1026100011461C2000F0FEF80121880700F0CEF8DA
:1026200001221146900700F0ECF810BD10B5012111
:10263000880700F0D5F828B100F0F6FA01218807E4
:1026400000F0BFF810BD000010B5044601210420C1
:10265000FFF782FC2146094800F06CFA01220221B2
:102660001E2000F0D7F80121044800F0A7F801224D
:102670001146024800F0C5F810BD000000080040F7
:1026800010B50121444800F0ABF8002870D0FFF7E6
:1026900013FC4248007801280DD1414800880428E5
:1026A00009DA01213F48FEF722FD3D480088401C21
:1026B0003B4908800CE03A480088042808DB0121E7
:1026C0003848FEF716FD0020344908703449088068
:1026D00035480078012813D134480088B0F57A7F56
:1026E0000EDA4FF400513248FEF701FD02212D4869
:1026F000FEF7FFFC2D480088401C2C49088012E0A2
:102700002A480088B0F57A7F0DDB02212548FEF7C4
:10271000EEFC002024490870244908804FF4005141
:102720002348FEF7E6FC23480078012810D1224810
:102730000088B0F57A7F0BDA1F480088012801D1A4
:10274000194908701C480088401C1B4908801DE07E
:1027500019480088B0F57A7F0BDB17480088B0F580
:10276000966F06DA14480088401C134908800DE073
:1027700010E011480088B0F5966F07DB012007498B
:10278000087000200B4908700B490880012102489D
:1027900000F017F810BD00000008004063000020A2
:1027A0002800002000080140640000202A000020CA
:1027B00000100140650000202C000020CA43028266
:1027C0007047CA430282704721B1028842F0010279
:1027D000028004E002884FF6FE731A4002807047C0
:1027E00030B50246002000230024158A05EA0103C3
:1027F000958905EA010413B10CB1012000E0002025
:1028000030BD1AB183890B43838102E083898B43F6
:1028100083817047F8B506460C4615464FF4A06014
:10282000FFF7AEF98DF8006001208DF803008DF8F8
:1028300001408DF802506846FFF76AF9F8BD0000C4
:1028400070B5002400220023058C4FF6FF6635404A
:102850000584028C8388848B4FF68F752C404FF64D
:10286000FC752C400D882C434FF6FF552A400D89EE
:102870004FF6FF7606EA05252A434D8806EA052528
:102880002A43154DA84202D0144DA8421DD14FF243
:10289000FF752A404D894FF6FF7606EA05252A4343
:1028A0004FF6FF352A408D8806EA05252A434EF665
:1028B000FF752B404DF6FF752B408D8906EA0515F7
:1028C0002B43CD8906EA05152B4383808483CD886D
:1028D0008587028470BD0000002C01400034014057
:1028E0000A460021818B4FF6F7731940114381830B
:1028F0007047000070B5002200230024058C4EF6BE
:10290000FF7635400584038C8488828B48F6FF75FA
:102910002A404FF6FF452A400D884FF6FF7606EA1B
:1029200005252A434DF6FF752B400D8906EA05352E
:102930002B434D8806EA05352B430B4DA84202D0A8
:102940000A4DA84208D14BF6FF752C408D894FF6F1
:10295000FF7606EA85152C4384808283CD88A0F813
:102960004050038470BD0000002C01400034014041
:102970000A460021818B4FF2FF7319404FF6FF7317
:1029800003EA0223194381837047F8B506460C46D3
:10299000154601213046FFF7EFFA18208DF80300A5
:1029A00003208DF80200ADF8005069462046FEF77E
:1029B000C1FAF8BD81877047A0F840107047000049
:1029C000002202881D4B98420ED01D4B98420BD01E
:1029D000B0F1804F08D01B4B984205D01A4B98425B
:1029E00002D01A4B984204D14FF68F731A404B888D
:1029F0001A43174B984207D0164B984204D04FF613
:102A0000FF431A40CB881A4302808B8883850B884A
:102A100003850A4B98420BD0094B984208D00E4BC5
:102A2000984205D00D4B984202D00D4B984201D1EF
:102A30000B7A03860123838270470000002C01403B
:102A4000003401400004004000080040000C004039
:102A500000100040001400400040014000440140CC
:102A60000048014010B504461048407801281BD1A9
:102A700000200E49487008460078012804D002283A
:102A800008D003280FD108E02046FFF70FFCFFF71E
:102A9000BDFC08E0FEF760F905E02046FFF706FC04
:102AA000FEF70AF900BF00BF10BD0000660000205D
:102AB00070B505460C4613484078012821D1002006
:102AC0001049487008460078012804D002280BD02D
:102AD000032815D10BE02046FFF7E8FB2846FFF757
:102AE000A3FBFFF793FC0BE0FEF736F908E0204666
:102AF000FFF7DCFB2846FFF797FBFEF7DDF800BF8A
:102B000000BF70BD660000200848407801280BD146
:102B100000200649487008460078032803D10020A9
:102B20000349087000BF00BF704700006600002026
:102B3000810000203EB505460C460020ADF8060099
:102B4000ADF80200601E80B2ADF804004720ADF879
:102B5000000069462846FFF733FF01212846FFF7AA
:102B600033FE3EBD70B504460D46012208490820DB
:102B7000FFF70BFF01210220FFF7EEF92146054880
:102B8000FFF7D8FF2946034800F020F870BD000089
:102B9000000C01400004004070B504460D460222BE
:102BA00008490820FFF7F1FE01210220FFF7D4F9C0
:102BB00021460548FFF7BEFF2946034800F01DF8EF
:102BC00070BD0000000C0140000400407FB50546C8
:102BD0000C466020ADF800000120ADF80200ADF811
:102BE00006400020ADF8080069462846FFF728FE99
:102BF00008212846FFF774FE7FBD7FB505460C46C9
:102C00006020ADF800000120ADF80200ADF80640EC
:102C10000020ADF8080069462846FFF76BFE082142
:102C20002846FFF7A5FE7FBD2DE9F047FEF79CFA89
:102C30008146FDF726FC07460022174BFDF735FBC2
:102C40000546FDF73CFC0446002C0FDD142C03DD8B
:102C50001248FEF739F81DE00A2C03DD1048FEF794
:102C600033F817E00F48FEF72FF813E0002C11DAC5
:102C700014F1140F03DA0C48FEF726F80AE014F1F9
:102C8000050F04DA4FF07D50FEF71EF802E007480A
:102C9000FEF71AF8BDE8F08700005440000020C09D
:102CA000000040BF9A9999BD000020409A99993D33
:102CB00010B540F22551054800F0A5F8012804D1CF
:102CC00040F22551014800F083F810BD0038014062
:102CD00010B5044604220D49104600F07CFA082283
:102CE0000A49042000F062FA01214804FFF734F990
:102CF0002146074800F03EFA01221146262000F046
:102D00003DF90121024800F072F810BD00080140B1
:102D10000044004008B540F225510A4800F073F81D
:102D200001280ED1074800F03EF9C0B20090012200
:102D30006946054800F084FA40F22551014800F048
:102D400047F808BD004400403000002010B504469C
:102D50004FF480620D49082000F03DFA4FF4006204
:102D60000A49082000F022FA01218804FFF7F4F84C
:102D70002146074800F0FEF901220221272000F039
:102D8000FDF80121024800F032F810BD000C0140AE
:102D90000048004008B540F225510B4800F033F8D8
:102DA000012810D1084800F0FEF8C0B200900122BE
:102DB0006946064800F044FA00F092F940F22551C5
:102DC000014800F005F808BD004800403C00002024
:102DD00010B50022002340F66A14A14200D100BFC2
:102DE0000A1201249440A3B2DC43048010BD21B137
:102DF000828942F40052828104E082894DF6FF7399
:102E00001A408281704770B50246002400230025D5
:102E1000002040F66A16B14200D100BFC1F342154E
:102E200001F01F03012606FA03F3012D02D1968952
:102E3000334006E0022D02D1168A334001E0968A23
:102E400033400C12012606FA04F41688344013B1FC
:102E50000CB1012000E0002070BDF0B50346002455
:102E600000260025002040F66A17B94200D100BFB5
:102E70001846C1F3421401F01F06012707FA06F5B0
:102E8000012C01D10C3004E0022C01D1103000E003
:102E900014301AB107682F43076002E00768AF4398
:102EA0000760F0BD2DE9F04786B005460E460024C8
:102EB000A24600BFA1460027B08900B100BF2F463F
:102EC0002C8A4CF6FF700440F08804432C82AC89B5
:102ED0004EF6F3100440B0883189084371890843E5
:102EE0000443AC81AC8A4FF6FF400440B0890443F0
:102EF000AC8201A8FFF750F81F48874202D1DDF8E5
:102F000010A001E0DDF80CA0A88900F4004040B159
:102F10000AEBCA0000EB0A1031684900B0FBF1F877
:102F200007E00AEBCA0000EB0A1031688900B0FB29
:102F3000F1F86420B8FBF0F004012009642101FBE2
:102F40001089A88900F4004040B1322000EBC9008C
:102F5000B0FBF1F000F00700044308E0322000EB82
:102F600009106421B0FBF1F000F00F0004432C8144
:102F700006B0BDE8F087000000380140F8B506460D
:102F80000C4615464FF4A060FEF7FAFD8DF8006080
:102F90008DF801408DF8025001208DF8030068463D
:102FA000FEF7B6FDF8BD01468888C0F308007047FB
:102FB0002DE9F04F87B004A8FEF7DCF800287DD09B
:102FC0004149424A1278069841F822004049049843
:102FD000086001203F4908703C480078401C3B498C
:102FE0000870084600780A286BDB002008708246CB
:102FF00033E00AF1010000F0FF0B27E0324850F8FF
:103000002A00314951F82B1088421BD92E4850F81C
:103010002A002D4951F82B1008442B4941F82A0069
:10302000084650F82A0051F82B10401A264941F85A
:103030002B00084650F82A0051F82B10401A22495C
:1030400041F82A000BF1010000F0FF0BBBF10A0F61
:10305000D4DB0AF1010000F0FF0ABAF10A0FC8DB65
:1030600000201D4908604FF0010A22E0164951F87E
:103070002A00FDF701FA0190FDF759FA00224FF0FE
:103080007F53CDE90201FDF716F9804689461248C3
:103090000068FDF707FA064642464B46FDF764F81E
:1030A0000446FDF72BFA0C4908600AF1010000F014
:1030B000FF0ABAF1090FD9DB012000E001E007495E
:1030C000087007B0BDE8F08FA80000206200002063
:1030D000480000204C000020500000205400002038
:1030E00038B5002436E000BF0123224669461D485A
:1030F000FEF7BCFF10B1601CC4B200E038BD9DF803
:1031000000000028F0D10123224669461548FEF749
:10311000ADFFF0B1601CC4B29DF80000FF2801D1E2
:10312000012000E00020C0B2A0B101232246694680
:103130000C48FEF79BFF58B19DF800000A49087043
:1031400001200A49087021460648FDF70CFE01E0FF
:10315000D4E7D3E70348FDF7CEFF0028C3D100BF73
:10316000CCE700003C0000206B0000206C00002039
:1031700000BFFEE77FB505460C4600940020ADF881
:103180000400ADF80600ADF808000C20ADF80A0008
:103190000020ADF80C0069462846FFF783FE0122A7
:1031A00040F225512846FFF758FE7FBDF8B5064688
:1031B0000C46154601213046FEF7DEFE48208DF80C
:1031C000030003208DF80200ADF800506946204648
:1031D000FDF7B0FEF8BDF8B506460C4615460121D0
:1031E0003046FEF7C9FE18208DF8030003208DF845
:1031F0000200ADF8005069462046FDF79BFEF8BD81
:1032000010B5044620210548FDF771FF4021034811
:10321000FDF76DFF2046FEF7A9FF10BD000C014031
:1032200010B5044620210548FDF761FF4021034801
:10323000FDF75FFF2046FEF799FF10BD000C01402F
:1032400030B51AE00B7845888468635543885B1C69
:103250009BB243808488A34201DB002343804388E0
:103260000488A34208D103885B1C9BB20380848836
:10327000A34201DB00230380491C1300A2F10104D7
:10328000A2B2DFD130BD00000FB4084B10B504A9C5
:1032900002AA039800F0E2F8044602A9002000F018
:1032A00074FC204610BC5DF814FB00008B3B00084A
:1032B00001480068704700008400002002E008C850
:1032C000121F08C1002AFAD170477047002001E0A0
:1032D00001C1121F002AFBD170470000014908609C
:1032E00070470000840000202DE9FF5FDDE9022027
:1032F000010DDDF838B0024318D044F61050A1F2A9
:10330000FF3141430D140F98012820D0A5EB0B008D
:10331000401C5FEA000A4FF00004474EDFF81C91A2
:10332000A046504616D5CAF1000728E00F980124A0
:1033300043A2012808D0002100980F9BC0E900217A
:10334000C0E90243BDE8FF9F6FEA0B01F4E7CBF150
:103350000000DEE7074612E0F80707D022463346B2
:1033600040464946FCF7A7FF804689462246334639
:1033700010461946FCF79FFF04460E467F10002FAB
:10338000EAD1DDE90201BAF1000F42464B4602DA0A
:10339000FCF791FF01E0FDF700F804460E4600221D
:1033A000284BFDF7EFF803D84FF0FF30014607E058
:1033B0000022254B20463146FCF7D6FEFDF770FA79
:1033C000102409E0002C0ADB0A220023FDF724F96F
:1033D000019B30321A55641E50EA0102F2D1641C7E
:1033E000019AC4F1110314440F9A012A03D0012257
:1033F00008430DD10AE0084304D000204FF0110B20
:103400000F9080E7A3EB0B056D1E0DE05B4504DD1F
:103410004FF0000205F1010504E003DA4FF000026D
:10342000A5F10105002AECD000980F99C0E90231FE
:10343000C0E9004586E70000000024400000F03F9E
:10344000300000000000F0430000E03F30380A2860
:1034500001D2012070470020704700002DE9FF4F86
:1034600095B09B468946064600250FE2252877D170
:1034700000242746F84A0121059400E0044316F889
:10348000013F203B01FA03F01042F7D130782A289F
:1034900011D06FF02F033078A0F13002092A16D82E
:1034A000059A44F0020402EB820203EB420210444C
:1034B000761C0590EFE759F8042B0592002A03DAF1
:1034C000504244F40054059044F00204761C3078D5
:1034D0002E2816D116F8010F44F004042A280DD026
:1034E0006FF02F023078A0F13003092B09D807EBD9
:1034F000870302EB4303C718761CF3E759F8047BF4
:10350000761C30786C280FD006DC4C2817D0682841
:103510000DD06A2814D104E0742810D07A280FD175
:103520000DE044F400140AE044F4801401E044F493
:1035300040147278824202D104F58014761C761C05
:10354000307866280BD013DC582877D009DC0028A7
:1035500075D04528F6D04628F4D047281AD19DE1E9
:1035600018E0632835D0642879D0652812D195E118
:10357000702873D008DC6728F1D069286FD06E28D6
:103580000DD06F2806D1B5E073282CD0752875D0E2
:10359000782874D05A46179990476D1C75E1C4F38A
:1035A0000250022809D003280DD0D9F800100428B1
:1035B0000DD00D6009F1040967E1D9F80010EA1790
:1035C000C1E90052F6E7D9F800100D80F2E70D705E
:1035D000F0E719F8041B8DF8001000208DF80100A9
:1035E000EA46012003E059F804AB4FF0FF306107D1
:1035F0004FF0000102D40DE008F101018846B94204
:103600000FDA8045F8DB1AF808100029F4D108E039
:1036100008F1010188468142FADB1AF808100029F6
:10362000F6D105985B46A0EB080721463846179A65
:1036300000F094FA284400EB080507E04DE029E18A
:103640000DE01AF8010B5A4617999047B8F1010896
:10365000F7D25B4621463846179A13E142E00A2228
:103660000092C4F302524FF0000A022A08D059F81F
:1036700004CB032A4FEAEC710AD00DE029E02AE0DE
:1036800009F1070121F00702F2E802C1914609E0C1
:103690000FFA8CFC4FEAEC71042A03D14FFA8CFC30
:1036A0004FEAEC71002907DA0A460021DCF1000C30
:1036B00061EB02012D2202E0220504D52B228DF8B8
:1036C0000420012203E0E20701D02022F7E7904620
:1036D00059E00A2102E010220DE010214FF0000A0B
:1036E00000910BE010224FF0000A44F00404082778
:1036F000009203E008224FF0000A0092C4F3025245
:10370000022A05D059F804CB0021032A08D009E089
:1037100009F1070121F00702F2E802C1914605E034
:103720001FFA8CFC042A01D10CF0FF0C4FF00008AA
:10373000220728D5702806D0009B83F0100353EA97
:103740000A0305D00EE040228DF80420012208E093
:103750005CEA010206D030228DF804208DF80500C5
:1037600002229046009B83F0080353EA0A030AD121
:103770005CEA010201D1620705D530228DF80420F0
:103780004FF001087F1E582804D034A003900EA8E3
:1037900002900DE036A0F9E753466046009AFCF728
:1037A0003BFF84460398825C0298401E02900270A0
:1037B0005CEA0100F0D1029806A9081A00F1200A7B
:1037C000600702D524F4803400E00127574502DD6C
:1037D000A7EB0A0000E0002000EB0A01009005982A
:1037E0004144401A0590E00306D45B462146179AEF
:1037F000059800F0B3F90544002706E001A85A46F1
:10380000C05D179990476D1C7F1C4745F6DBE003B0
:103810000CD55B462146179A059800F09FF90544A0
:1038200004E030205A46179990476D1C0099481EB5
:1038300000900029F5DC08E0029802995A460078C9
:10384000491C0291179990476D1CBAF10001AAF129
:10385000010AF1DC65E10000092801003031323352
:1038600034353637383961626364656600000000BC
:1038700030313233343536373839414243444546A6
:103880000000000000F058F90544761C307800284C
:103890007FF4ECAD19B02846BDE8F08F620700D484
:1038A000062709F1070222F0070CFCE80223E14693
:1038B00003F000485FEA080C02D00FF2702C0DE014
:1038C0005FEA045C02D50FF2682C07E05FEAC47C73
:1038D00002D00FF2602C01E0AFF2700C4FF0FF3815
:1038E00023F00043CDF850C065280CD006DC4528F5
:1038F00009D046281DD047283DD13DE0662818D084
:1039000067287ED138E00021112F01DB112000E073
:10391000781CCDE9000106A90EA8FFF7E5FCDDE95A
:103920000F010E9A03910021009207F1010A049100
:103930004DE04FF000400097CDE9011006A90EA818
:10394000FFF7D2FCDDE90F0203920E9B11990022D2
:10395000DDF80CA00093049211B9791C00EB010A68
:10396000B7EB0A0004D4C0F1FF3007F1010A04905C
:10397000AAEB0700019044E0012F00DA01270021A3
:10398000112F01DD112000E03846CDE9000106A924
:103990000EA8FFF7A9FCDDE90F010E9A03910021A3
:1039A00004910092BA4621070CD40399514500DADC
:1039B0008A46BAF1010F05DD009AAAF10101515CB6
:1039C000302908D0B84202DA10F1040F06DA0121DA
:1039D000CDE9011015E0AAF10101E9E7002805DCB5
:1039E000049901440491AAEB000102E0411C5145F5
:1039F00000DD8A460499401A401C01904FF00040B7
:103A00000290200704D40198504501DBCDF80480D2
:103A100000208DF84F0002980DF14F07B0F1004FD4
:103A200025D02B200E9002984FF0020800280CDAC7
:103A3000404202902D200E9007E00A210298FCF7E8
:103A4000D5FD3031029007F8011DB8F10001A8F151
:103A50000108F2DC02980028EFD1791E0E98087058
:103A6000307800F0200040F0450007F8020D12A861
:103A7000C01B00F107081498007800B1012000EB8A
:103A80000A01019801EBE07105984144401A401E7B
:103A90000590E00306D45B462146179A059800F08E
:103AA0005DF805441498007818B15A461799904764
:103AB0006D1CE00324D55B462146179A059800F05B
:103AC0004DF805441CE00498002807DBDDE90301FC
:103AD000884203DD0098405C179901E01799302077
:103AE0005A469047049805F10105401C049001983E
:103AF000401E019004D12E205A46179990476D1C04
:103B0000BAF10001AAF1010ADDDC05E017F8010BAA
:103B10005A46179990476D1CB8F10001A8F10108A9
:103B2000F4DC5B462146179A0598ABE62D000000B1
:103B30002B000000200000002DE9F0410446002584
:103B40001E461746880404D405E039462020B047B5
:103B50006D1C641EF9D52846BDE8F0812DE9F041C1
:103B6000044600251E469046C80301D5302700E0D4
:103B70002027880404D505E041463846B0476D1C2F
:103B8000641EF9D52846BDE8F0810A68531C0B6015
:103B90001070704730B583B00446FFF789FB0546C7
:103BA0000020CDE90000024621466846FCF7B1FD41
:103BB0002846FFF793FBDDE9000103B030BD0000AC
:103BC00010B56FF00400FEF77DFC0A4800680A4952
:103BD000B0FBF1F0094908700846007800EB40019D
:103BE000C1EBC0104FF6FF7101EAC0000449088024
:103BF00010BD00000000002000127A007C000020B0
:103C00007E0000200146114A12884A434FF0E0230B
:103C10005A6100229A611A46126942F001021A6141
:103C200000BF4FF0E022106900F001021AB100F469
:103C30008032002AF5D04FF0E022126922F0010212
:103C40004FF0E0231A6100229A6170477E00002045
:103C500010B5FFF7B5FF4FF4A060FDF791FF4FF4EB
:103C60001650FFF773F84FF4E130FFF731F840F2E8
:103C7000AA5144F62060FEF775FF40F2AA5144F6BF
:103C80002060FEF789FFFDF7A7F8FDF7D1FFFDF7EC
:103C900021FCFDF70FFC00F067F8002010BD0000CC
:103CA00010B5102302A200211420FEF7DBF810BD8E
:103CB000454D500010B5044624BB274800781C3001
:103CC000C1B20C2325A22820FEF7CCF8FEF704F899
:103CD000214800680C382049086008460068002820
:103CE00001DA182008601C4800781C30C1B20C238F
:103CF0001BA22820FEF7B6F8FDF7EEFF1648006875
:103D000018490860012C25D1134800781C30C1B235
:103D10000C2312A22820FEF7A5F80F4800680C30EB
:103D20000D490860FDF7D8FF0B480068242802D130
:103D3000002009490860084800781C30C1B20C23F3
:103D400007A22820FEF78EF803480068054908609E
:103D5000FDF7C2FF10BD0000780000202020000009
:103D60002D3E00007400002000260024FDF7F4FA28
:103D70000C2323A21C212820FEF774F8FDF7ACFFCA
:103D80003CE00020FDF70EFB0546012D1AD0022D68
:103D90000ED0032D02D0042D2FD11DE006B12CE052
:103DA0000120FFF787FF641C032C00D1002424E0CE
:103DB00006B122E0641E0020FFF77CFF002C00DA31
:103DC00002241AE0701CC6B220200E4908700E4969
:103DD00051F82400804710E00026FDF7DBFEFDF7D8
:103DE00069FB0A4800781C30C1B20C2304A22820C9
:103DF000FEF738F8FDF770FF00BF00BFC1E7000015
:103E00002D3E000070000020D00000207400002033
:103E100000000000000000000000000000000000A2
:103E20003F40000000000000000030004000300073
:103E30004000000009000BC03D000BC03D00090020
:103E400018C024407FE0224031800000180024C0C8
:103E50001B000D803240018003801C4027401C80E5
:103E6000074000401000600000000000000000005B
:103E70000000000000001F80204040200000402083
:103E800020401F8000000000090006001F8006007F
:103E900009000000040004003F800400040000004A
:103EA000001000600000000000000000040004009A
:103EB00004000400040000000000004000000000B6
:103EC00000000000002001C0060038004000000093
:103ED0001F802040204020401F8000000000104034
:103EE0003FC000400000000018C021402240244094
:103EF0001840000010802040244024401B80000017
:103F000002000D0011003FC0014000003C80244031
:103F100024402440238000001F802440244034405B
:103F2000038000003000200027C03800200000007F
:103F30001B802440244024401B8000001C0022C021
:103F4000224022401F8000000000000008400000C6
:103F500000000000000000000460000000000000FD
:103F6000000004000A001100208040400900090000
:103F700009000900090000000000404020801100F5
:103F80000A0004001800200023402400180000004C
:103F90001F802040274029401F400000004007C0EC
:103FA00039000F0001C0004020403FC024402440A1
:103FB0001B8000001F8020402040204030800000F7
:103FC00020403FC0204020401F80000020403FC0D4
:103FD00024402E4030C0000020403FC024402E002E
:103FE000300000000F00108020402240338002008B
:103FF00020403FC0040004003FC02040204020403B
:104000003FC02040204000000060202020203FC012
:104010002000200020403FC024400B0030C0204042
:1040200020403FC020400040004000C03FC03C0056
:1040300003C03C003FC0000020403FC00C402300B4
:104040003FC020001F802040204020401F800000F3
:1040500020403FC024402400180000001F80214061
:10406000214020E01FA0000020403FC02440260047
:1040700019C0004018C02440244022403180000074
:10408000300020403FC020403000000020003F8032
:10409000004000403F80200020003E0001C007009B
:1040A00038002000380007C03C0007C0380000007E
:1040B000204039C0060039C02040000020003840B0
:1040C00007C0384020000000304021C02640384062
:1040D00020C00000000000007FE0402040200000E1
:1040E000000070000C000380004000000000402031
:1040F00040207FE000000000000020004000200081
:10410000000000000010001000100010001000104F
:1041100000000000400000000000000000000280DD
:104120000540054003C0004020003FC0044004405B
:1041300003800000000003800440044006400000AB
:1041400000000380044024403FC000400000038082
:104150000540054003400000000004401FC024400B
:1041600024402000000002E00550055006500420C5
:1041700020403FC00440040003C000400000044051
:1041800027C000400000000000100010041027E0CD
:104190000000000020403FC00140070004C0044070
:1041A000204020403FC000400040000007C0040005
:1041B00007C0040003C00000044007C0044004001E
:1041C00003C000400000038004400440038000005E
:1041D000041007F004500440038000000000038036
:1041E0000440045007F00010044007C002400400DF
:1041F00004000000000006400540054004C0000027
:10420000000004001F8004400040000004000780FC
:104210000040044007C000400400070004C00180C3
:1042200006000400060001C0070001C006000000EF
:10423000044006C0010006C004400000041007103E
:1042400004E00180060004000000044005C00640B0
:10425000044000000000000004007BE0402000005B
:10426000000000000000FFF00000000000004020FF
:104270007BE00400000000004000800040002000BF
:1042800020004000000000000000000000000000CE
:10429000000000000000000000001FCC000C000027
:1042A000000000000000080030006000080030003E
:1042B00060000000022003FC1E20022003FC1E20E0
:1042C0000220000000000E1811043FFF10840C783B
:1042D000000000000F0010840F3800C00778188419
:1042E0000078000000780F8410C411240E9800E4B8
:1042F0000084000808006800700000000000000052
:104300000000000000000000000007E01818200472
:1043100040020000000040022004181807E00000DE
:10432000000000000240024001800FF001800240C6
:10433000024000000080008000800FF800800080B4
:10434000008000000001000D000E000000000000D1
:1043500000000000000000800080008000800080DD
:10436000008000800000000C000C00000000000035
:104370000000000000000006001800600180060038
:1043800018002000000007F00808100410040808B6
:1043900007F000000000080408041FFC00040004EB
:1043A0000000000000000E0C1014102410441184B2
:1043B0000E0C000000000C181004110411041288E7
:1043C0000C700000000000E00320042408241FFCFF
:1043D0000024000000001F981084110411041088AC
:1043E00010700000000007F00888110411041888FC
:1043F0000070000000001C00100010FC13001C00E6
:104400001000000000000E38114410841084114484
:104410000E38000000000700088C10441044088883
:1044200007F00000000000000000030C030C000077
:104430000000000000000000000101060000000074
:104440000000000000000080014002200410080865
:10445000100400000220022002200220022002207C
:10446000022000000000100408080410022001408F
:104470000080000000000E001200100C106C108074
:104480000F00000003E00C1813E4142417C40828DC
:1044900007D000000004003C03C41C40074000E4B7
:1044A000001C000410041FFC1104110411040E88E8
:1044B0000070000003E00C18100410041004100831
:1044C0001C10000010041FFC100410041004080845
:1044D00007F0000010041FFC1104110417C410049D
:1044E0000818000010041FFC1104110017C0100070
:1044F0000800000003E00C181004100410441C789D
:104500000040000010041FFC108400800080108414
:104510001FFC10040000100410041FFC1004100401
:104520000000000000030001100110011FFE100038
:104530001000000010041FFC110403801464181CF8
:104540001004000010041FFC100400040004000408
:10455000000C000010041FFC1F0000FC1F001FFCCB
:104560001004000010041FFC0C04030000E01018ED
:104570001FFC100007F008081004100410040808BD
:1045800007F0000010041FFC1084108010801080C1
:104590000F00000007F0081810241024101C080A4F
:1045A00007F2000010041FFC1104110011C01130AB
:1045B0000E0C000400000E1C110410841084104422
:1045C0001C3800001800100010041FFC100410001C
:1045D0001800000010001FF810040004000410046C
:1045E0001FF8100010001E0011E0001C0070138066
:1045F0001C0010001FC0103C00E01F0000E0103C39
:104600001FC000001004180C163401C001C016347D
:10461000180C100410001C00130400FC13041C00F0
:10462000100000000804101C1064108413041C0403
:10463000101800000000000000007FFE4002400251
:1046400040020000000030000C0003800060001CED
:104650000003000000004002400240027FFE000014
:10466000000000000000000020004000400040006A
:104670002000000000010001000100010001000114
:104680000001000100004000400020000000000088
:10469000000000000000009801240144014401448E
:1046A00000FC000410001FFC0088010401040088C5
:1046B0000070000000000070008801040104010483
:1046C0000088000000000070008801040104110847
:1046D0001FFC0004000000F80144014401440144AF
:1046E00000C800000000010401040FFC11041104C3
:1046F00011001800000000D601290129012901C973
:104700000106000010041FFC0084010001000104E8
:1047100000FC000400000104190419FC000400045A
:10472000000000000000000300010101190119FE52
:104730000000000010041FFC0024004001B4010C24
:10474000010400000000100410041FFC0004000419
:1047500000000000010401FC0104010001FC01044F
:10476000010000FC010401FC0084010001000104BF
:1047700000FC0004000000F801040104010401042D
:1047800000F80000010101FF008501040104008818
:1047900000700000000000700088010401040105A1
:1047A00001FF00010104010401FC00840104010077
:1047B00001800000000000CC012401240124012418
:1047C0000198000000000100010007F80104010445
:1047D00000000000010001F80004000400040108CA
:1047E00001FC0004010001800170000C0010016058
:1047F0000180010001F0010C003001C00030010C0B
:1048000001F0010000000104018C00740170018CB2
:1048100001040000010101810171000E0018016016
:104820000180010000000184010C01340144018475
:10483000010C0000000000000000000001003EFC30
:10484000400240020000000000000000FFFF0000E6
:10485000000000000000400240023EFC0100000099
:104860000000000000006000800080004000400068
:1048700020002000000000000000000000000000F8
:104880000000000000000000000000000000000028
:104890000000000000000000000000000000000018
:1048A000000000000000000F80380FFE380F803835
:1048B00000000000000000000000000000000000F8
:1048C00000000100000600000C000038000031006C
:1048D000000600000C00003800003000000000005E
:1048E0000000000061800067F807F9800061800027
:1048F00061800061800061800067F807F9800061D5
:104900008000000000000000000001C0E003E0F0B3
:104910000630080418081FFFFE040E080787F0037E
:1049200081E000000000000001F000060C0004041B
:1049300008060C7001F9C0000E00003BE000EC1806
:10494000070808040C180003E00000000001E00064
:1049500007F003F818041C0804170807E1D003C087
:10496000E00023B0003C0800200800001000000018
:104970000000000100003100003200001C000000B7
:104980000000000000000000000000000000000027
:104990000000000000000000000000000000000017
:1049A000000000007F0001FFC00780F00C0018101D
:1049B000000420000200000000000020000210009F
:1049C000040C00180780F001FFC0007F0000000009
:1049D00000000000000000000000000000000000D7
:1049E0004200006600006600003C0000180003FF63
:1049F000C0001800003C0000660000660000420095
:104A00000000000008000008000008000008000086
:104A1000080001FFC00008000008000008000008AE
:104A2000000008000000000000010000310000321A
:104A300000001C000000000000000000000000005A
:104A40000000000000000000000000000800000856
:104A5000000008000008000008000008000008002E
:104A6000000800000800000800000000000000002E
:104A7000000000003800003800003800000000008E
:104A80000000000000000000000000000000000026
:104A900000000000000600001C0000700001800003
:104AA0000E0000380000C0000700001C00003000AD
:104AB00000000000000000007F8001FFE003807024
:104AC000060018040008040008060018038070019E
:104AD000FFE0007F800000000000000000000100F7
:104AE0000801000801000803FFF807FFF8000008AC
:104AF00000000800000800000000000000000001A5
:104B0000C03802C0580400980401180402180404B4
:104B100018061C1803F81801E0F800000000000057
:104B200000000001C0E003C0F0040008040808040D
:104B3000080806180803F41801E7F00001E0000077
:104B400000000000000000000300000D0000110044
:104B500000610000810803010807FFF80FFFF8005B
:104B600001080001080000000000000000E007FC50
:104B7000D00608080610080610080610080618389F
:104B8000060FF00607C00000000000000000000053
:104B90003F8001FFE003843002081804100804106D
:104BA00008041008071810030FF00007C0000000E9
:104BB00000000000000003C000070000060000061F
:104BC00000F80607F806180006E0000700000600D7
:104BD0000000000000000001E1E003F7F0063410DF
:104BE000041808041808040C08040C080616180316
:104BF000F3F001C1E000000000000000F80003FC39
:104C000030030638040208040208040208040410F1
:104C10000308F001FFC0007F00000000000000005A
:104C2000000000000000000000000000703800706C
:104C30003800703800000000000000000000000094
:104C40000000000000000000000000000000000064
:104C5000301A00301C0000000000000000000000BE
:104C60000000000000000000000000080000140028
:104C7000002200004100008080010040020020046A
:104C800000100800080000000000000021000021C2
:104C9000000021000021000021000021000021006F
:104CA00000210000210000210000000000000000A1
:104CB00000000800080400100200200100400080ED
:104CC00080004100002200001400000800000000E5
:104CD00000000003C00004C0000400000800380801
:104CE0000F380808380810000C300007E00003C037
:104CF00000000000000000003F8000FFE003807023
:104D0000020F1006708804C088048308047F88029C
:104D1000C09003012000FE400000080000180001C0
:104D2000F8003E0801C20007020007E20000FE0092
:104D3000001FC80001F80000380000080400080740
:104D4000FFF807FFF8040808040808040808040826
:104D50000806180803F41801E7F00001E00000005D
:104D6000000000003F8001FFE00380700200180493
:104D70000008040008040008040010060020078052
:104D8000C000000004000807FFF807FFF80400084F
:104D900004000804000804001802001003807001D9
:104DA000FFE0007F8000000004000807FFF807FF15
:104DB000F8040808040808040808040808043E0861
:104DC0000400080600180100600000000400080745
:104DD000FFF807FFF80408080408000408000408A6
:104DE00000043E00060000060000018000000000F4
:104DF000000000003F8001FFE003807006001804FF
:104E000000080402080402080203F00783F000020D
:104E10000000020004000807FFF807FFF804080874
:104E20000008000008000008000008000408080747
:104E3000FFF807FFF804000800000000000004006D
:104E40000804000804000807FFF807FFF80400083A
:104E5000040008040008000000000000000000003A
:104E60000006000007000001040001040001040026
:104E70000307FFFE07FFFC0400000400000400001D
:104E800004000807FFF807FFF8040C0800180000EA
:104E90003E0004C7800503C80600F804003804007B
:104EA0001800000804000807FFF807FFF8040008CE
:104EB00000000800000800000800000800000800CA
:104EC000001800006000000004000807FFF80780D9
:104ED0000807FC00007FC00003F80007C00078004E
:104EE00007800807FFF807FFF80400080400080718
:104EF000FFF807000803C00000E000003800001EB3
:104F0000000007000001C00400F007FFF8040000E3
:104F1000000000007F8001FFE0038070060018049D
:104F2000000804000806001803003001FFE0007FBD
:104F30008000000004000807FFF807FFF8040408D9
:104F4000040400040400040400040400060C00032C
:104F5000F80001F000000000000000007F8001FF69
:104F6000E00380700600880400880400C806003C46
:104F700003003E01FFE6007F8400000004000807F4
:104F8000FFF807FFF8040808040800040C00040FE9
:104F900000040BC00610F003F03801E00800000820
:104FA00000000001E0F803F0300630100418080497
:104FB0001808040C08040C080206180207F0078100
:104FC000E000000001800006000004000004000072
:104FD00004000807FFF807FFF804000804000004B5
:104FE000000006000001800004000007FFE007FF4A
:104FF000F004001800000800000800000800000885
:1050000000000804001007FFE00400000400000690
:10501000000007E00007FE00041FE00001F80000A8
:10502000380001E0043E0007C00006000004000054
:1050300004000007E00007FFC0041FF80007C007D6
:10504000F80007FF80043FF80007C004F8000700DD
:105050000004000000000004000806001807C078E3
:1050600005F1C8003E00001F800463E80780F806D1
:10507000001804000800000004000006000007807B
:105080000007E008047C08001FF80007F800180873
:1050900004E0080700000600000400000000000112
:1050A00000080600380400F80403E8040F08047C34
:1050B0000805F00807C00807001804006000000099
:1050C0000000000000000000000000000000003FA1
:1050D000FFFE20000220000220000220000220002B
:1050E00002000000000000000000080000070000AF
:1050F00000C0000038000006000001C000003000C1
:10510000000E000001000000000000000000200070
:10511000022000022000022000022000023FFFFEC9
:10512000000000000000000000000000000000007F
:105130000000000000080000100000300000200007
:105140000030000010000008000000000000000017
:10515000000001000001000001000001000001004A
:10516000000100000100000100000100000100003A
:10517000010000010000000000000000002000000D
:1051800020000010000010000000000000000000DF
:1051900000000000000000000000000000F0001906
:1051A000F8001B180022080026080024080024101C
:1051B000003FF8001FF8000008000018000000047D
:1051C000000007FFF80FFFF000181800100800207B
:1051D00008002008003018001FF0000FC000000079
:1051E0000000000007C0001FF00018300020080079
:1051F0002008002008003C08001C1000006000008F
:10520000000000000000000007C0001FF000381878
:1052100000200800200800200804101007FFF80FE5
:10522000FFF0000010000000000000000000000778
:10523000C0001FF0001230002218002208002208CF
:10524000003208001E10000E2000000000000000C8
:10525000200000200800200801FFF803FFF80620C6
:1052600008042008042008072000030000000000B4
:1052700000000000000E000E6E001FF30031B100B0
:1052800020B10020B1003191001F13002E1E00201C
:105290000E00300000000004000807FFF80FFFF8C0
:1052A000001008002000002000002008003FF80047
:1052B0001FF80000080000000000000000000020AF
:1052C00008002008002008063FF8063FF800000804
:1052D00000000800000800000000000000000000BE
:1052E0000000000003000003002001002001002056
:1052F00003063FFE063FFC00000000000000000027
:1053000000000004000807FFF80FFFF80001880004
:105310000300002FC00038F80020380020080000EB
:10532000080000000000000000000400080400085D
:1053300004000807FFF80FFFF8000008000008004D
:105340000008000000000000002008003FF8003FB7
:10535000F8001008002000003FF8003FF800100897
:10536000002000003FF8003FF800000800000000A7
:105370002008003FF8003FF800100800100000204F
:1053800000002008003FF8001FF80000080000009F
:105390000000000007C0000FF000183000300800C7
:1053A0002008002008003008001830000FF0000727
:1053B000C0000000000000002001003FFF003FFF90
:1053C00000101100200900200800200800303800DB
:1053D0001FF0000FC00000000000000007C0001F09
:1053E000F0003818002008002008002009001011E3
:1053F000001FFF003FFF0000010000000020080028
:105400002008002008003FF8003FF80008080010BE
:1054100008002008002000003000003000000000DC
:10542000000000000000000C78001E180033080087
:1054300023080021080021880021980030F000385E
:10544000600000000000000020000020000020009C
:1054500000FFF003FFF800200800200800200800EB
:105460000030000000000000000000002000003FAD
:10547000F0007FF80000180000080000080020106D
:10548000003FF8007FF00000100000000000000066
:105490002000003000003C00003F800023F00000AE
:1054A00078000070002380003C00003000002000E5
:1054B000002000003C00003FE00023F80000E00076
:1054C0002700003E00003FE00021F80001E0003E20
:1054D00000002000000000002008002008003838EC
:1054E000003E680027800003C8002CF80038380010
:1054F00020180020080000000000000020000030FC
:1055000003003C01003F830023EC00007000238077
:10551000003C00002000002000000000000000000F
:1055200000000038080020380020F80023E8002F91
:1055300088003E08003808002018000070000000B5
:10554000000000000000000000000000000000005B
:1055500008000014001FF7FC3000062000020000C5
:10556000000000000000000000000000000000003B
:10557000000000000000FFFFFF000000000000002E
:1055800000000000000000000000000000002000FB
:10559000023000061FF7FC001400000800000000A5
:1055A00000000000000000000000000000000018E3
:1055B00000006000004000004000002000001000DB
:1055C000000800000400000400000C0000100000AF
:1055D000DDDDDDDDDCBBBBDDDDDDDDDDDDDDDDDD40
:1055E0009888888888888888777777777788888880
:1055F0008555555666666666666666666668888818
:105600008333333222222222222222222228888D10
:10561000305600080000002088000000BC3200085E
:10562000B85600088800002058080000CC32000856
:1056300000A24A0400000000000000000102030470
:105640000607080900000000010203040102030428
:105650000607080902040608000000000000000018
:105660000000000010000000880000200000000082
:105670001000000098000020000000000000000062
:10568000000000000000000000000000000000001A
:105690000000000000000000000000000001000009
:1056A00000000000000000000000000000000000FA
:0856B0000000000000000000F2
:0400000508000131BD
:00000001FF
